:020000022000DC
:1070000000A0012065B90200ED76040051B902002C
:1070100051B9020051B9020051B90200000000004C
:107020000000000000000000000000009DB9020008
:1070300051B902000000000071BC020051B9020009
:1070400025BD0200E5C0030025BD020025BD0200EC
:1070500025BD020025BD020025BD020025BD0200A0
:1070600025BD020025BD020025BD020025BD020090
:1070700025BD020025BD020025BD020025BD020080
:1070800025BD020025BD020025BD020025BD020070
:1070900025BD020025BD020025BD020025BD020060
:1070A00025BD020025BD020025BD020025BD020050
:1070B00025BD020025BD020025BD020025BD020040
:1070C00025BD020025BD020025BD020025BD020030
:1070D00025BD020025BD020025BD020025BD020020
:1070E00025BD020025BD020025BD020025BD020010
:1070F00025BD020025BD020025BD020025BD020000
:107100004FEA4102B2F1E04324BFB3F5001CDCF1C9
:10711000FE5C0DD901F0004C4FEAC0024CEA507001
:10712000B2F1004F40EB830008BF20F00100704730
:1071300011F0804F21D113F13872BCBF01F0004033
:10714000704741F480114FEA5252C2F11802C2F165
:10715000200C10FA0CF320FA02F018BF40F00100E6
:107160004FEAC1234FEAD32303FA0CFC40EA0C0098
:1071700023FA02F34FEA4303CCE77FEA625307D1D5
:1071800050EA01331EBF4FF0FE4040F4400070470C
:1071900001F0004040F0FE4040F40000704700BFA6
:1071A00053B94AB9002908BF00281CBF4FF0FF316E
:1071B0004FF0FF3000F00CB8ADF1080C6DE904CED3
:1071C00000F022F8DDF804E0DDE9022304B07047A6
:1071D000704700BF10F8012B11F8013B012A28BFAE
:1071E0009A42F7D0D01A7047034611F8012B03F8E2
:1071F000012B002AF9D17047034613F8012B002A0E
:10720000FBD1181A013870472DE9F0478C468E469D
:10721000089E154604461946002B40F0D080724562
:1072200047D9B2FA82F74FB1C7F120030EFA07FC33
:1072300020FA03F3BD4043EA0C0CBC404FEA154E64
:10724000A8B2BCFBFEF8230C0EFB18CC08FB00F91F
:1072500043EA0C43994528D9EB1808F1FF3204D2D0
:10726000994502D9A8F102022B44A3EB0903A4B269
:10727000B3FBFEFC0EFB1C330CFB00F044EA0344A2
:10728000A04214D92C190CF1FF3304D2A04202D928
:10729000ACF102032C44241A43EA02401EB1FC4024
:1072A000002334607360BDE8F0874246DDE7634643
:1072B000F1E7002A79D0B2FA82F3002B3FD01946C9
:1072C000C1F1200302FA01F52EFA03F20EFA01FED3
:1072D00020FA03F343EA0E034FEA154E00FA01F4D5
:1072E000B2FBFEFCAFB20EFB1C201A0C0CFB07F825
:1072F00042EA004290455AD9AA180CF1FF3004D254
:10730000904502D9ACF102002A44A2EB08029BB2DC
:10731000B2FBFEFC0EFB1C220CFB07F743EA024308
:107320009F4246D9EB180CF1FF3204D29F4202D99A
:10733000ACF102022B44DB1B42EA004202E0AEEB5E
:10734000020301224FEA154EAFB2B3FBFEFC200C44
:107350000EFB1C330CFB07F840EA034398452AD97F
:10736000EB180CF1FF3004D2984502D9ACF10200C1
:107370002B44A3EB0803A4B2B3FBFEFC0EFB1C33AF
:107380000CFB07F744EA0344A74216D92C190CF169
:10739000FF3304D2A74202D9ACF102032C44E41B10
:1073A00043EA00400F46114678E71F2188E7604610
:1073B000ABE76246BFE76046DBE76346EFE773454E
:1073C00006D916B9002108466DE7C6E9000EF9E7AF
:1073D000B3FA83F787B9734501D3824207D8841A79
:1073E0006EEB030301209C461EB900215BE7384683
:1073F000FAE7C6E9004CF8E7C7F1200CBB4022FAD7
:107400000CF51D4320FA0CF12EFA0CF30EFA07FED0
:1074100041EA0E014FEA154900FA07F4B3FBF9F807
:107420001FFA85FE09FB18300B0C08FB0EFA43EA25
:1074300000439A4502FA07F240D9EB1808F1FF30F1
:1074400004D29A4502D9A8F102002B44A3EB0A0307
:1074500089B2B3FBF9F809FB183308FB0EFE41EAC9
:1074600003418E452CD9691808F1FF3304D28E45AB
:1074700002D9A8F10203294443EA0040A0FB029884
:10748000A1EB0E014145CE46434602D306D14C4501
:1074900004D2B9EB020E68EB05030138002EA4D02C
:1074A000B4EB0E0261EB030101FA0CFC22FA07F3C4
:1074B0004CEA0303F940C6E9003196E74046C5E7C8
:1074C0004346D9E7000000002DE9F843D0E907382A
:1074D000856903EB08042F34A5420F46164619D8D8
:1074E000DFF87080A3FB080117A3D3E90023FFF79F
:1074F00057FE0346601BA0FB080123F07F4412A344
:10750000D3E90023FFF74CFE20F07F403C60306061
:10751000BDE8F883DFF83C900BA3D3E90023A5FB7B
:107520000901FFF73DFE20F07F4409480A2106A328
:10753000D3E90023E8FB0901FFF732FE20F07F408A
:107540003C603060BDE8F8838D49FD1A07000000FB
:1075500000166BF100CA9A3B9FED097B0E4B0F4A58
:107560000F4983ED007B9FED087B82ED007B9FED53
:10757000087B0C4B002281ED007B1A600EF0A4BA50
:10758000FFFFFFFFFF1F00000000000000000000E1
:107590001F0000000000000028020020C01600208C
:1075A000200200204CA50020002800F044812DE995
:1075B000F04FC74C94F85E30DA078DB000F1378198
:1075C000627F94F8293004EB820204EB8303166A8D
:1075D000D3F82C800EB3354615F8020BC0F380109B
:1075E0000DF04EF90368C6F802308388AB8033781B
:1075F0005B0606D5062128460BF0CCFD002800F0DE
:107600004C81454615F8020BC0F380100DF038F997
:107610000368C8F802308388AB80337813F00E0F0C
:1076200040F0918063691BB10C200DB0BDE8F08F74
:107630000DF0AAFD8146002800F038810DF0B0FD64
:107640008246002800F02F810FF0C8FF0546002871
:1076500000F03381D0F888004FF6FF73AB8405F15A
:10766000100B002800F0248105F17C0205F178015F
:107670000BF09CFDB5F8763023F4EF6323F007039D
:1076800043F48C7343F00103A5F8763095F8373056
:1076900003F03F0363F07F0385F8373095F88E30B1
:1076A00023F0070385F88E3095F83C3023F00F0364
:1076B000002785F83C304FF4C023C5F88E312846AA
:1076C000C5E91277C5F88870A5F88C7085F839700F
:1076D0006F85C5F82E702F65A5F86071A5F89471B7
:1076E000A5F88A7111F00EFF85F86471C5F86891EC
:1076F00010F038FA95F89C3160F3020385F89C315C
:1077000010F036FA95F89C3160F3C50385F89C318A
:1077100095F8623167F34103012185F8623128460B
:1077200010F0C8FD05F1E00011F00CFDC4E9159A58
:10773000C4F814B0C5E902772F702D6115F078F9FF
:10774000002840F0AC80237E0121C3F342030DF1F9
:107750002B008DF82B300BF0CDFE024600286CD0AC
:10776000414630460FF054FB5A4A5B4BB4F85C80FC
:107770000721E0FB023100251846C4E9025552A357
:10778000D3E900232570FFF70BFD60600DF03CF896
:1077900000F10907B8F1000F07D1357805F00F05A2
:1077A000A5F10105B5FA85F56D09207E636865F3DD
:1077B000000010F00105207646D0484A09920020CA
:1077C00010600225464ADFF8248104930BAE019332
:1077D00005920321CDE90200069400903B46CDF8C6
:1077E0001C8008962A460B950CF032FF31460DF0AE
:1077F0004DFD10BB3B4905914AF2D8330093CDE9CA
:107800000300CDE90100CDF81C80089606943B46A4
:10781000012203210B950CF0FFFE31460DF036FDE1
:1078200058B994F85E3043F0010384F85E300020CC
:107830000DB0BDE8F08F0FF085BA6369002B3FF4FF
:10784000F3AE0FF055FAEFE6244A2748049303F20B
:1078500047130694029591211360A8FB000301FBD6
:107860000831224B07931E4B05934FF6FF73099285
:107870004FF0020803930BAE13A3D3E90023CDF816
:107880002C800896FFF78CFC3B46CDE90050424621
:10789000284603210CF0DCFEBFE71220C5E60FF0FE
:1078A00027FA0320C1E648460DF074FC0720BCE629
:1078B00005F18000C5F88800D6E650460DF076FC4C
:1078C00048460DF067FCF1E78D49FD1A07000000FE
:1078D00074A5002000CA9A3B8C49FD1A68A50020B7
:1078E000896E0300AD6B0300002AE784054903009D
:1078F00070B5037E8AB0C3F342030D4604460121EE
:107900000DF1230016468DF823300BF0F3FD3146C0
:10791000024628460FF07CFA1D4A1E4B0721E0FB69
:107920000231184618A3D3E90023FFF739FC636836
:107930009842054621D21B1A00220192164A029350
:10794000164BA21AA3FB02320221920900230A4419
:1079500009AE099112490591CDE903330321069639
:10796000D2B2009318460CF0C9FE31460DF08EFCE1
:1079700038B9656000200AB070BDFBD9C21A002377
:10798000DBE70C200AB070BD8D49FD1A070000002E
:1079900000CA9A3B8C49FD1A74A50020ABAAAAAA7A
:1079A00005490300000000002DE9F04F05468BB0AB
:1079B0008B46012002219946144616F0B3FC0022A2
:1079C0000221824601200BF045FC2F494FF4D4726E
:1079D00028460BF0CBFBC61C2C4B0093F6B201954E
:1079E0004B463246012100200CF0D6FE10F0FD0F70
:1079F00042D1274BA4FB0348204621A3D3E900230F
:107A00004146FFF7CDFB089506956B680493214B23
:107A100020F07F47A7FB0331E01A1F4B07934FF07D
:107A200007021E4B059302FB07114FF6FE7368EB2E
:107A3000010103934FF47A720023FFF7B1FBCDF8F5
:107A400000B0CDE901704B463246012100200CF018
:107A5000E3FD10F0FD0F0DD1BAF1000F02D10BB014
:107A6000BDE8F08F0122022110460BB0BDE8F04FB7
:107A70000BF0F0BB00DEEFE700DEBAE7AFF300800B
:107A80008D49FD1A07000000D816002099740300E4
:107A900000CA9A3B8D49FD1A8174030029BE030078
:107AA0002DE9F0418468A28C4FF6FF739A428CB0A6
:107AB00000F0C0800546204611F0A0FF2B7D012B71
:107AC00000F0E680022B00F0B88033B994F88E30D5
:107AD00003F01803182B00F01C8194F86471002F38
:107AE00040F0AE802B8AE68D94F93720CDE90A77F5
:107AF000002B00F0AC80002AC0F221810023A4F802
:107B00009031AB7CA28D03F00303551C012BADB269
:107B100000F0BA80B4F89431002B00F0BF80AB4283
:107B200040F237815B1B9BB2062BA4F894314FF0D7
:107B300000028CBF00230123E2851F4694F83C20FD
:107B400063F3820284F83C2029460DF12702204687
:107B500011F014FD743000F01681B4F88E312BB1A1
:107B6000AB4240F2BF805B1BA4F88E31B4F88A317F
:107B70002BB1AB4240F2C6805B1BA4F88A31E58D85
:107B800017B9AE4200F0AC800135ADB294F8D130F7
:107B900013F0010609D1DDE90AC3B3BBBCF1000F44
:107BA00000F0E9801E46194630E094F9372023F0B2
:107BB0000103002A84F8D130C0F28A8094F876005C
:107BC000C0F3C00100F0070014F0B4FDB4F86E205B
:107BD000B4F86C301344E28B03F23F13134418449F
:107BE0008D4A8E4B0721E0FB0231184688A3D3E96A
:107BF0000023FFF7D5FA616820F07F408142DDE97C
:107C00000AC380F0B280461A60600021A28C246909
:107C10000694CDE903570332814D0291CDE900C6A8
:107C2000D2B20121002005950CF068FD10F0FD0F87
:107C300040F0B4800CB0BDE8F0813D2784F8647159
:107C4000394620460CB0BDE8F04110F04BB8002A90
:107C5000B8BF84F8D570AB7CA28D03F00303551C2C
:107C6000012BADB210D0B4F89031002B3FF452AFDD
:107C7000AB4240F29A805B1BA4F89031B4F8943187
:107C8000002B7FF44CAF59E70023A4F8943155E75B
:107C90000023A4F88E31A4F88A311EE7E38C052B6B
:107CA0008BBF40F2E2424FF4FA725A4303FB0222C6
:107CB000B4F8923142F2107101FB0323013BB3FB94
:107CC000F2F39BB2A4F89431002B7FF428AF35E790
:107CD00094F87700012100F0070014F02DFD75E7FE
:107CE0003D4653E70DF0A2FA0146002864D0002378
:107CF000A4F88E31A38CC3801B23037100680DF0A0
:107D000067FA33E70023A4F88A31204611F0C8FC53
:107D100035E7218DB4F88C218B1D9A42C4BF931F87
:107D20005B1AB4F88811CCBF9BB21346994256D067
:107D3000A4F88831A4F88A31A4F88E21CDE694F80D
:107D4000D530002B3CD0013B84F8D53004F1E0085D
:107D5000404611F039FA002855D0404611F034FA67
:107D6000002842D00023E385C8E6091A6060A3BB5F
:107D700051EA0C021ED115B9002F3FF45BAF00266B
:107D80003146334642E79DF8271020460FF0AAFF00
:107D900050E7082120460FF0A5FF4BE70DF0A0FAB1
:107DA00084423FF447AF00DE44E73E2120460FF017
:107DB00099FF3FE71E4629E70123A4F88E31D5E657
:107DC0000AAA0BA92846FFF77FFBDDE90A23134324
:107DD000BCD0237884F8D530B8E7002616E7B4F88D
:107DE0008E1100297FF479AEA4E70246D4E91E0182
:107DF0000BF0F4F90028B5D194F83C301B0744BFD0
:107E0000238DE3857AE6FF200FF02EFFA5E700BF64
:107E10008D49FD1A0700000000CA9A3B8C49FD1AE3
:107E2000D9740300000000002DE9F04F87B0B0F8CE
:107E30006071BDF84C900091CDE90423B0F8243175
:107E4000BDF840A01F44BFB20446A7EB090390F859
:107E50007600D4F81C819EB2BDF844300193C0F383
:107E6000C001BDF84830039600F00700029314F0FB
:107E700061FCE58C052D40F2A38015FB06F5ADB243
:107E800040F2E24BBAF1050F40F28E80B4F86E205A
:107E9000B4F86C30134403F2D5130344764A7748A0
:107EA0000721E3FB02014FF09613E361962323843D
:107EB0006FA3D3E90023FFF773F9564620F07F4004
:107EC00040F2E2430BFB05F203FB06F6531E33447C
:107ED000B3FBF6F31FFA83FB60600BFB06F08242F4
:107EE0005D4653D26449801AA0FB010160A3D3E927
:107EF0000023FFF755F920F07F408044B4F8242197
:107F0000B4F86031A9EB07094D44ADB213442B44DA
:107F1000A4F86031638D13441D4494F837306585AF
:107F2000DB0955D100DE00273546019B2385029BE6
:107F3000A4F8923131462046A4F826A011F04AFB5D
:107F40004F4B218D3344881DB3FBF6F39AB2904218
:107F5000A4F88C2104D2C1F57F41FA310A4492B2CF
:107F6000009BA4F8882113B10023A4F89431434660
:107F70002A4639462046FFF717FD94F8623143F050
:107F8000010384F8623107B0BDE8F08F121A3A4855
:107F9000A2FB000136A3D3E90023FFF701F920F08B
:107FA0007F40A8EB0008A9E74FF096130AF10106FD
:107FB000E36196232384B6B20A204FF4FA7381E773
:107FC000039B013515FB03F5ADB24FF4FA7B59E77E
:107FD000216CA36C284F01FB0233039A01FB12337F
:107FE000A3640023C4F8DC3014F074FD054694F853
:107FF000D400C0F3420014F06FFD054406FB05F504
:10800000204B1E4805F5742505F23F25A3FB0535D9
:10801000AD0CA36C25640BFB05FB72085B44963A20
:10802000934228BF1346C4E91123049B40F2E2495E
:1080300009FB03F307212365EBFB07010CA3D3E93D
:108040000023FFF7ADF8104B059AA8EB0008A3FB3F
:108050000230800A09FB00F0A0FB070104A3D3E96A
:108060000023FFF79DF8751B20F07F475DE700BFF9
:108070008D49FD1A0700000000CA9A3B8C49FD1A81
:108080007FC3C90183DE1B435917B7D1000000002D
:108090002DE9F04F0D460968B0F82EE0D1F80090B8
:1080A0000146144651F82EAB52F8086B91F802C005
:1080B000834691B0D0F81E00BBF822109BF81C70CC
:1080C000A4F808E082F802C0DBF82A206260DBF83E
:1080D0003A20C4F82220ADF83C109BF83E100E90D8
:1080E00084F8261010AB13E9030004F122020C906F
:1080F000ADF83410104605210BF0FCF994F8272058
:1081000000F03F0060F3050284F827209BF83F2031
:10811000C2F3040184F82810BBF83410E18201286E
:10812000C7F380170DD902F01F021B3202F01F02A5
:108130000B2A06D889B2063989B240F67A429142B2
:1081400019D90021C9F8081094F82C2061F3000215
:1081500084F82C200125DBF80C408BF804505046A5
:1081600059460DF029F820682571214611B0BDE867
:10817000F04F0DF02DB82A6800215160BBF8362071
:108180002283B4F81680BBF832300A9340F2E24200
:10819000304602FB08F811F031FA9BF83F1096F8D0
:1081A000D400490961F3430086F8D40014F092FC2E
:1081B0000B9096F8D400C0F3420014F08DFC0B999C
:1081C000084408FB00F0984900F5742000F23F20B5
:1081D000A1FB00104FEA5801800C963920636163BF
:1081E0009BF8311040F2E24201FB02F26264BBF8FC
:1081F0003820A6F892214146304611F0EBF98B4A1F
:108200008B49C6F898114244B2FBF8F290B2A6F836
:108210008C01218B01F1060C604504DDC1F57F4125
:10822000FA31014488B25946A6F8880111F81C2F8A
:10823000C907C2F3401200F1E680BDF83410ABF874
:1082400023100C988BF81E704FF48071CBF81F0030
:10825000ABF81C10E18AABF82610218BABF8281084
:10826000B6F89211ABF82A1096F8D4100B92C1F31D
:1082700042018BF82C1030460FF0BCF95946A08211
:10828000ABF8060050466F680CF096FF0B9AA18A77
:10829000D7F800A0F9801C233B71002A40F09F8092
:1082A0003A77394650460CF093FF94F86700B4F8DB
:1082B0005CA0B4F85E70012100F0070014F03CFAF5
:1082C000574407F2D5173B1882465A4F5A480721A0
:1082D000E3FB07014FF09613C4E9033350A3D3E93E
:1082E0000023FEF75DFF20F07F407060EB680A9886
:1082F000226B40F2E24101FB003404F2B34402215C
:10830000A41A0120A8EB020800220AF0A3FF4846A5
:108310000EF04AFFA4EB0A0441A3D3E900238246EE
:10832000A4FB0701FEF73CFFCDF80490AB6843497E
:10833000009120F07F470AF10202363BD2B23B4463
:10834000012100200CF028FA01285ED099F818309D
:10835000DB0750D430460FF04DF9364CA8FB0448EB
:108360002FA3D3E90023834641462046FEF718FF9A
:10837000AB68334A0792A3F1360A324B069620F0D7
:108380007F49A9FB0331E01A2F4B05934FF4F87393
:108390000893736804934FF0070303FB091168EB1C
:1083A000010100244FF47A7200230394FEF7F8FED3
:1083B0000BF10305EDB2CDE90190009753462A4633
:1083C000012120460CF028F910F0FD0F23D10122E5
:1083D0000221104611B0BDE8F04F0AF03BBF94F8FF
:1083E000273043F0400384F82730201D13F00CFEA3
:1083F0000122208554E700230122009318461146EC
:108400000CF094F9A6E700DE17E70CF069FF814550
:108410009CD000DE9AE700DED9E700BFAFF3008012
:108420008D49FD1A0700000083DE1B437FC3C9018D
:10843000404B4C0000CA9A3B8C49FD1AB1BE030068
:1084400001BE03008D49FD1A29BE03000000000093
:10845000F0B5C468636883B00546002B40D115F0C1
:108460007BFB002015F09EFB0021084615F08CFBDD
:1084700000222521082015F0F3FB374B019301A8BA
:1084800015F0DAFB354940F25B6015F08DFC237A7C
:10849000C3F3420262F306132372204614F0A0FCD9
:1084A00027682E68384614F0FFF806446A6806F11B
:1084B0000901012015F0A0FD15F060FE20460EF028
:1084C0007FFE811C3246C9B2384614F0EFF80546EB
:1084D00098B9204614F0C4F868B9002003B0F0BD84
:1084E00093F82C309B07BAD01D48214615F008FBA5
:1084F00015F002FCF1E700DEEFE71A4A1A491B48C3
:1085000040F211431EF017FB194B0721A5FB030393
:1085100001FB05310EA3D3E90023FEF741FE154907
:10852000024615481EF007FB002585F31188BFF3AE
:108530006F8F0323184602DF1048214615F0E0FA3A
:1085400015F0DAFB6FF08B00C8E700BFAFF30080D7
:1085500000CA9A3B00000000D6BE898E55555500D2
:10856000E9C70300E4DB040030DC040088DB04001E
:108570008D49FD1A78DD040034DC0400E5CA0300EF
:108580002DE9F043C468A28A4FF6FF739A4283B084
:1085900000F0FD80064614F049FE3389628B208C82
:1085A00094F82710A3831A4492B2104480B2431C5B
:1085B00023840023638301F03F034906E28300F133
:1085C000A48094F82810009304F1290004F12203F8
:1085D00013F0DCFC0546D4E90C31A26BA08BA3633D
:1085E00003FB0022E36B8A4294BF9B185B188B420B
:1085F00028BF0B46626CE363236C94F867101A443F
:1086000094F82C3061F306130021C4E9101294F899
:108610007E2084F82C3012F0040200F0898015F0DE
:108620009BFA002015F0BEFA201D15F005FB2389EA
:10863000A17A40F25B6043EA014115F0B5FB2846A0
:1086400014F044F82146584815F05AFAA08915F05C
:10865000C7FC94F8662094F86700C2F3C0030021B9
:1086600002F0070200F0070015F004FC204614F0A9
:1086700077FED4F800803768404614F015F80744B8
:10868000726807F10901002015F0B6FC814615F06B
:1086900049FD002015F060FDE36B94F8670003F1DD
:1086A0002F02636C012100F0070003EB420515F077
:1086B00015FB4D44054494F8670000F007000228BC
:1086C00034D004280CBF4FF4BC73282301211D446F
:1086D00015F006FB284415F017FDA18A03313A4630
:1086E000C9B2404613F0E2FF0546A8B1B37A13F0D1
:1086F00002062BD000252D48214615F001FA15F071
:10870000FBFA284603B0BDE8F083218D04F1220274
:1087100013F07EFC05465EE7204613F0A1FF00281B
:108720003CD10025284603B0BDE8F0831823CDE7EF
:10873000D4E91A010AF052FD00287FF470AF94F8D2
:108740007E3043F0040384F87E3068E7184A194904
:1087500019484FF4AC731EF0EEF918480721A5FB39
:10876000000301FB05310EA3D3E90023FEF718FD3A
:108770001349024613481EF0DEF986F31188BFF351
:108780006F8F0323184602DF6FF08B05B3E70E48A7
:10879000214615F0B5F915F0AFFAC2E700DEC0E7E3
:1087A00000CA9A3B0000000085D50300C9C703003A
:1087B00060DC040030DC040088DB04008D49FD1A15
:1087C00084DD040034DC0400E9C70300000000007D
:1087D00010B510EE103A33F000422DED028B06D1A9
:1087E000BDEC028B0120BDE810401DF0FBBB002B4F
:1087F00005DABDEC028BBDE810401DF003BCB3F1FF
:10880000FF4F06DB30EE008AB0EE480ABDEC028B6B
:1088100010BDB3F5000FB8BFDFED5F7A5F49BEBF93
:1088200060EE277A6FF0180217EE903A4FEAE354A1
:10883000C3F316031944A8BF00227F3C144401F47B
:10884000000282F07E521A4307EE102A544A04EBCB
:10885000D15403F10F01F7EE007A0A4037EE678A30
:10886000B2BBB5EE408AF1EE10FA0FD1002C00F049
:108870008C8007EE904A9FED4B0A9FED4B7AF8EE05
:10888000E77A27EE808A07EE878ABDE740A1D1E923
:108890000001FEF735FC07EE900AB6EE007A07EE0F
:1088A000C87A68EE087A27EE277A14B938EE478A34
:1088B000AAE707EE904ADFED3B6AF8EEE77A07EEAB
:1088C000E67A37EE488A9FED387A17EE878A9BE77B
:1088D000F0EE007A78EE277A9FED345ADFED344AD5
:1088E000344A88EE276A1A44C3F5571303F52273F6
:1088F0001343002B07EE904A66EE065AF8EEE76A3D
:1089000025EEA57ADFED2C7A07EE275ADFED2B7ADC
:1089100045EE077A9FED2A5A07EE875ADFED297A4E
:1089200047EE274ADFED287A44EE877A67EE877AAA
:1089300045EE257A1ADDB6EE007A28EE077A27EEA4
:10894000087A77EE877A67EE867A14B937EE677A17
:10895000ACE79FED146A46EE867A37EE677A37EE1B
:10896000488ADFED117A16EEA78A4DE778EE677A2E
:1089700067EE867A14B938EE678A45E79FED097A83
:1089800046EEC77A37EEC88AEBE79FED108A3BE7E1
:10899000555555555555D53F0000004C20FB4A0014
:1089A000F0FF7F00D1F717378071313F25333A3E12
:1089B000298E633E305CCFFF9788173E2549923E53
:1089C000ABAA2A3F4FD01C3ECDCCCC3E00000000CD
:1089D000F8B510EE904A34F000472DED048B10EE00
:1089E000103AB0EE609A0DD183F480035B0013F56A
:1089F000000F40F2AD8230EE098AB0EE480ABDECBD
:108A0000048BF8BD23F00041B1F1FF4F184602D8A6
:108A1000B7F1FF4F08D9B3F17E5FECD184F4800445
:108A2000640014F5000FE4E7002B25DAB7F1974F47
:108A300080F09782B7F17E5F3CD3FA15C2F19602BF
:108A400047FA02F505FA02F2BA422CD105F0010507
:108A5000C5F10205B7F17E5F2DD1002C80F27E8238
:108A6000B5EE400AF1EE10FA1FD1D80FBDEC048B21
:108A7000BDE8F8401DF0B6BAB7F1FF4F13D1B1F120
:108A80007E5F00F0658208D9DFEDD57A002CB4BF97
:108A9000B0EE678AB0EE498AAFE7002C80F25B82C5
:108AA000B1EE498AA9E70025D4E7B7EE007A87EE50
:108AB000008AA2E70025B4F1804F0A4640F05782B1
:108AC000B1F1BF4F0DD2B1F1D05F02D920EE008AD3
:108AD00093E7B0EEC08A69BB012D08BFB0EE408AB3
:108AE0008BE723F04046B6F17E5FB0EEC08A18D126
:108AF000002CBCBFB7EE007A87EE088A002BBFF6C9
:108B00007CAFA1F17E51294305D1BDEC048BBDE8BA
:108B1000F8401DF077BA012D7FF46FAFB1EE488AAF
:108B20006BE739B9002CD7DA002B9FD06B1E584267
:108B300058419BE7DE0F013E55EA0600E5D0B7F14C
:108B40009A4F72D9A74B994208D8002C0BDA002013
:108B5000BDEC048BBDE8F8401DF034BAA24B99423D
:108B600008D9002CF3DC0020BDEC048BBDE8F840F4
:108B70001DF018BAB7EE007A38EE478ADFED9B7A1F
:108B8000DFED9B9A94A1D1E9000168EE278AFEF7F8
:108B9000B7FA07EE900AB5EE007A48EE477AB6EEDD
:108BA000007A07EEC87A68EE087ADFED926A27EE5F
:108BB000277AF0EE687A47EE667A68EE299A39EEFF
:108BC000A77A17EE103A6FF30B0307EE103A77EE21
:108BD000699A77EEE97A013D3543F7EE006ABFEE18
:108BE000008A6FF30B0418BFB0EE668A06EE904A57
:108BF00039EE666A67EE890A46EE070A67EE267A5C
:108C000030EEA77A17EE101A002921F0004340F346
:108C10001581B3F1864F40F2CD80B5EEC08AF1EEFA
:108C200010FA4CBF0120002092E713F0FF4F01BF64
:108C30009FED717A68EE077A6FF0170117EE902AB0
:108C40004FEAE25318BF00217F3B0B446B49C2F34C
:108C500016028A4242F07E5006DD69498A4240F39C
:108C6000A7800133A0F500000021664A02EB8102D3
:108C7000D2ED005A06EE100A75EE867AF7EE006A1B
:108C8000C6EEA74A36EE657A27EE245A15EE102A6C
:108C90006FF30B0206EE902A5B4A02EA600242F092
:108CA000005202F5800202EB415207EE902A06EED6
:108CB000E77A77EEE57ADFED555A36EE676A65EECC
:108CC000057A06EE667A9FED526A47EE865A9FED68
:108CD000516A05EEA76ADFED505A46EE275A9FED1E
:108CE0004F6A05EEA76ADFED4E5A46EE275A27EE89
:108CF000247A36EE856A67EEA77A26EE076A05EED5
:108D0000A76A66EEA64AF0EE085A74EEA57A77EEE8
:108D1000867A17EE902A6FF30B0207EE902A77EE11
:108D2000E55A27EE277A75EEE45A66EEA76A36EE24
:108D3000656A06EE057A9FED3B6A76EE877A17EE56
:108D4000902A6FF30B0207EE902A77EEE66A27EE81
:108D5000866A37EE667ADFED346A344A67EEA67AC1
:108D6000DFED336A47EE267A02EB810292ED007A5C
:108D700077EE877A07EE103A2E4B03EB8103F8EE7D
:108D8000C76AD3ED005A36EE277A37EE257A37EEEA
:108D9000267A17EE103A6FF30B0307EE103A77EED0
:108DA000666A76EEE56A76EEC66A77EEE67A12E7EE
:108DB00001215AE756D1DFED206A37EE677A70EE6F
:108DC000A66AF4EEC76AF1EE10FA3FF726AF8623E3
:108DD0004CE000BFAFF30080E13D55555555D53F00
:108DE00000000000F3FF7F3F0700803F70A5EC36D6
:108DF00000AAB83F3BAAB83F0000804B71C41C00DA
:108E0000D6B35D00BC14060000F0FFDF55326C3EA7
:108E100042F1533E05A38B3EABAAAA3EB76DDB3EA3
:108E20009A99193F0040763FC623F6B8AC14060065
:108E30004F38763FB41406003CAA3833514A934267
:108E400007D9B5EEC08AF1EE10FA4CBF0120002020
:108E50008AE607D137EE677AB4EEE07AF1EE10FADF
:108E6000B5DBEEE7B3F17C5F6DD9DB157E3B4FF4EC
:108E7000000018410844C0F3C753434A7F3B1A41DE
:108E8000024007EE102AC0F3160040F40000C3F1C0
:108E900017031841002977EEC77AB8BF404237EE72
:108EA000A07ADFED3A6ADFED3A5A9FED3A6A17EEA3
:108EB000103A6FF30B0307EE103A77EE677A67EE1E
:108EC000266A70EEE70ADFED347A27EE277ADFEDC7
:108ED000337A00EEA77AB7EE000A76EE877A77EE5D
:108EE000E66A37EE667A67EEA76A07EE877A16EECD
:108EF000A56ADFED2B5A46EE265A9FED2A6A15EE3B
:108F0000A66ADFED295A46EE265AB0EE676A05EEEC
:108F1000E66AF0EE006A67EE865A36EE666AC5EEDD
:108F2000866A36EEC77A77EE677A30EE670A10EE19
:108F3000103A03EBC053B3F5000F06DA1CF0ECFF58
:108F400020EE088A59E50020A9E700EE103AF7E77D
:108F5000B7EE008A51E59FED158A4EE5B0EE408AE6
:108F60004BE5B7F1FF4F3FF48AAD0A460225B4F155
:108F70007C5F7FF4B6AD002BFFF6B3ADB1EEC08AD7
:108F80003BE500BF00001643000080FF0072313F48
:108F90004CBB31330EEADD358CBEBF351872313F24
:108FA00055B38A38610B363BABAA2A3E000000005D
:108FB00030B50C4D0FCD89B003AC0FC42B682360C6
:108FC0000124094B09490094022203A806F01CFA67
:108FD000034620B1064A074821461DF06CFB09B044
:108FE00030BD00BF00D1040008D4040010D4040038
:108FF000F6180600DCCF040013B519F0D7FE0022E6
:109000000621072002F00CFD072002F0D9FC062003
:1090100019F030FD034640B1104A114801211DF0FE
:109020004AFB6FF0040002B010BD0E4822F0F6FDBE
:10903000034608B10C4AF0E74FF0FA6301240093AD
:109040006A460A4BADF804400221204619F05AFD49
:1090500003460028E7D0064ADFE700BF06190600EE
:10906000DCCF0400EC3C06001E190600259402002B
:10907000351906000346024A024802211DF01BBBB7
:109080004F190600DCCF0400032A08B5084606D1B4
:10909000034923F07BFB10B9024B01221A7008BD73
:1090A000661906000660012007B519F07FFE084B1F
:1090B0001B68084ABFF35B8F1268BFF35B8F0648DB
:1090C00000920321054A1EF016FA03B05DF804FB76
:1090D000F41C0020EC1C0020DCCF04006A19060000
:1090E00070B50D4698B00446A8B914230093184BE8
:1090F000184A1B68302103A81BF0D8FC86B2314601
:1091000003A81DF0DAFA0C30012819D94FF42470A5
:1091100000211DF007FB5022294604A8ADF80C40A1
:10912000ADF80E2023F003FB542103A81DF0C5FA6F
:109130000C30012809D8422000211DF0F3FAF3E792
:10914000A42000211DF0EEFAD9E718B070BD00BFD1
:1091500030020020951906002DE9F0412E4EC0B0D6
:1091600000252E4F2E48DFF8D0804FF0FF334FF010
:10917000FF321AF017FB3B7883F001031D40B8F86B
:109180000040043CA4B2012C04D8A42000211DF00E
:10919000C9FAE6E7234A936812699B1A1AD13B7809
:1091A000002BDED17DB9204809211DF086FA0C3054
:1091B00001280AD933881D4A1D4803211DF07BFA76
:1091C0001C481AF0BBFA0125CBE7422000211DF014
:1091D000A9FAE8E79C4203D93A78002AC1D19CB2A7
:1091E00033881048ADF80640224602A9ADF8043095
:1091F0001EF0A7F80434A4B2214601A81DF05DFAC0
:109200000C30012803D9338801333380B7E742207B
:1092100000211DF087FAEFE7A4BB002007600120C2
:109220000409002048020020A7190600B119060011
:10923000DCCF0400540900208007002008B5054851
:109240001DF072FA04481DF04EFABDE808400348CC
:109250001DF049BA30D4040028D4040020D40400FE
:1092600070B5104D2B780C460BB1FFF71DFF0E4B60
:1092700000222A701A700D4B1A700D4B1A700D4B8C
:10928000F4221A80FFF7DAFF0B4A0C48234602212A
:109290001DF011FABDE8704009484FF480420023E8
:1092A0001AF0A2BC076001200560012006600120C1
:1092B0000460012080070020CC190600DCCF0400E8
:1092C000680B002008B505481DF00DFA04481DF094
:1092D0002BFABDE8084003481DF005BA30D404005D
:1092E00028D4040020D4040010B50446084619B15F
:1092F000BDE81040FFF7BEBE0C4B01221A700C4BAC
:109300001970FFF7DFFF0B4920461FF0DEFF0A4907
:10931000204620F021F80949204609F0F5FB084ACB
:109320000848BDE8104003211EF0D2B805600120B6
:10933000046001209C1806009418060044020020D6
:10934000DE190600DCCF040008B505481DF0ECF975
:1093500004481DF0E9F9BDE8084003481DF0C3B911
:1093600030D4040028D4040020D4040010B5032411
:10937000FFF7EAFF002141F69A101DF0D3F90A48E1
:109380001DF0B1F909481DF0AEF909481DF0ABF91F
:1093900041F69A1000211DF0C5F9013CE8D1BDE865
:1093A0001040FFF7D1BF00BF30D4040028D4040020
:1093B00020D40400F0B583B0154E02AF0D46E9B9D4
:1093C00020F0ECFFC41EA4B234806E468AB002AA1C
:1093D000104BD461C2E90530043C0523146242F805
:1093E000103F0D482B464FF4235101F0A1FCB54628
:1093F0000A4B012204371A70BD46F0BD3388084A73
:10940000009305480B4602211EF075F8F0E700BFF7
:1094100080070020E8190600DCCF0400046001206A
:10942000091A060070B503787BB1032B0CD1254CCB
:10943000254B20784FF4007103EB802019F0B2FB2C
:10944000237883F00103237070BD44681F480368CC
:10945000A21E04F2FE3532F9021FCE1A03EB2623B8
:10946000C91A95421180F6D1194D03604FF400716D
:10947000204600F057FB4FF48062214628461DF03D
:1094800040FFB0F5806F13D0BFF35B8F114B53E8F3
:10949000001F013143E80012002AF8D1BFF35B8FAF
:1094A0000D481AF04BF90D48BDE870401AF046B966
:1094B0002A69AB689B1A0A4A11688B4288BF1360FD
:1094C000EEE700BF93070020A6BB0020F01C0020A1
:1094D00048020020EC1C0020240900200409002080
:1094E000E81C00202DE9F041AA4896B01DF000F9D3
:1094F000A9481DF0FDF8A9481DF0FAF8A5481DF08F
:1095000013F9A5481DF010F9A4481DF00DF9A44960
:10951000A44822F04CFE00F0C3F960B1A24AA3486F
:1095200001211DF0D5FFFFF721FF4FF0FF3420464A
:1095300016B0BDE8F081FFF75FFD58B19C4A9B482B
:109540006FF0040301211DF0B6F86FF00404FFF77B
:109550000DFFECE705F05EFA044630B1954A03468C
:10956000924801211DF0A7F8E1E79349024621F056
:109570000FF8044610B1914A0346F1E7904D0FCD24
:1095800009AC0FC42B68236001258E4B8E490095D2
:10959000022209A805F038FF044610B18B4A0346A1
:1095A000DEE700220023CDE906230523CDE90203EF
:1095B000CDE900000490864B864987484FF400624D
:1095C0001AF036FC8549844822F023FEFFF736FE68
:1095D000834A7648834E844D03211DF079FF40F67F
:1095E000CD4000211DF09EF83378002BF7D07F4B43
:1095F0001B78002BF3D07E4B1A78002AEFD02A7804
:1096000002F0FF04002AEAD11C704FF4FA570A2333
:10961000784A6648009703211DF06DFF764BC3E939
:109620000244C3E905445C601C61744BBFF35B8F6B
:1096300053E8002F43E800410029F9D1BFF35B8FC5
:109640006F4B1C606F4B1C806F481AF0D1F86F484D
:109650001AF0CEF86E4B6F4A20210EA81BF026FAA6
:109660000EA8FDF7C9FD81B20EA81DF026F8002155
:109670004FF4A4701DF056F846481DF034F84648E3
:109680001DF052F845481DF04FF8634B4FF00108AC
:1096900085F800801C60614B4FF400621A6000F096
:1096A00033FAFFF7A9FC80BB5D4B5E4883F800806E
:1096B0004FF4007119F076FA38BB19F0B3FA04468A
:1096C00018BB594A39483B4603211CF0F4FF4E4869
:1096D00041F69A1200231AF065F80746F0B1534A92
:1096E0003248234601211CF0E6FF00232B70FFF7D0
:1096F000DBFC4F481AF022F844484FF4A022002324
:109700001AF050F84B480B2105E000232B70FFF7AF
:109710002DFE494809211CF0D0FF60E701349D2C43
:10972000D5D1FFF7C1FC2F7041481AF007F8374830
:109730004FF4A02200231AF035F820B13F4A1B480D
:1097400002211DF0C5FE3E4A184803211DF0C0FE4F
:1097500010481CF0E9FF10481CF0C5FF0F481CF032
:10976000E3FF384B384840F233521A6000F020FAD9
:10977000041E6FDC354A0D48234601211CF09BFF77
:10978000072133481CF099FFFFF7F0FDFFF79AFD22
:1097900025E700BF30D4040028D4040020D40400FE
:1097A000B18F0200680B00202E1A0600DCCF0400E7
:1097B000431A0600591A060034020020671A0600F0
:1097C00000D1040008D4040010D404007E1A06005E
:1097D0005991020000610120980B0020921A0600A6
:1097E000991A06000560012007600120046001202D
:1097F00006600120D11A060048020020EC1C00205F
:10980000E81C0020A4BB00202409002054090020EB
:1098100000710200F61A0600F41C0020F01C002063
:1098200093070020A6BB0020001B06002A1B060091
:1098300004090020431B0600201B06004F1B0600E6
:10984000771B060030020020E19002009F1B0600FB
:10985000BA1B06004FF4247000211CF063FF0C4873
:1098600009211CF02AFF0C3001280FD91423094AC2
:1098700009480093032123461DF03DFEFFF722FD1A
:10988000064A054803211DF023FEA8E6A420E3E7CD
:10989000C21B0600CC1B0600DCCF0400F91B06002F
:1098A0002DE9F0412DED068B96B07E4B7E4A7F4828
:1098B0007F4DDFED809A9FED809A9FED808ADFEDEE
:1098C000808A00AF042117F035FA002407EE904A91
:1098D000B8EEE70A013420EE290A80EE090A1CF0EE
:1098E000B7F9322CF0EE687A40EE487AE5EC017A6E
:1098F000ECD1DFED749A9FED749ADFED748A3C46EB
:109900003E46002507EE905AF8EEE77AB3EE057A68
:1099100067EEA97AB2EE040AC7EE870A0135B7EE00
:10992000008A70EE890AC0EEA80AFFF751F8162DDA
:10993000DFED677A9FED677A30EE480A20EE270A5E
:10994000C0EE077A9FED647A67EE877AE6EC017ADB
:10995000D8D16248614D45F25002002122F00EFF3D
:10996000DFED5F6A002340F2011645F25000D4EDAE
:10997000005A94ED016A94ED025A043459190022F8
:1099800007EE902AF8EEE77AF4EEE75AF1EE10FAD5
:109990005BD8B4EEE76AF1EE10FA56DB76EE654A74
:1099A000F5EEC04AF1EE10FA63DD77EEE57A87EE68
:1099B000A47A0132B242A1EC017AE1D103F204436C
:1099C0008342D4D1474E9FED489A9FED48AADFEDE0
:1099D00048AADFED489A002507EE905AF8EEE78A8C
:1099E000B04668EE8A8A002407EE904AB8EEE70A8D
:1099F000013430EE000A30EE080A20EE280A80EE2C
:109A00002A0A1CF025F9142C20EE090AA8EC010AF8
:109A1000EAD10135142D06F15006B0EE699ADBD17A
:109A200035484FF4007118F065F9044620B3334A05
:109A30000346012132481DF054FD4FF0FF305837E6
:109A4000BD46BDEC068BBDE8F081B4EEE76AF1EEF1
:109A500010FA0ED5B4EEE75AF1EE10FA09DB75EE06
:109A6000464AF5EEC04AF1EE10FA02DD75EE677A6D
:109A70009DE7B0EE667A9CE76E468AB06A46214B57
:109A800005933223CDE906350523089542F8103FAA
:109A90004FF4235103461A4801F04AF92046B546CF
:109AA000CDE700BF1C91002038D4040010910020A5
:109AB00044900020DB0FC940000048421F85EB3E68
:109AC000713D0A3FF9FF754485C67F41003022454C
:109AD00000002F4400007A4400008043F43F00203F
:109AE00000000000B43900202EF9643EDB0F49402D
:109AF000000020429BE8A13EF81C0020221C06002A
:109B000064D004004C1C060008B520220348002144
:109B100022F034FE024B00221A6008BD1C91002086
:109B20000C910020F8B5B1F5007F1C4D9FED1C7A1B
:109B3000A8BF4FF400710C462A4600239C4211DC5A
:109B4000164A1848184F1146234617F0B5F817481B
:109B500000230268194644F61F668C420EDC03B1EE
:109B60000260F8BD30F9131007EE901AF8EEE77AAC
:109B7000013367EE877AE2EC017ADFE7B24209DC73
:109B8000D5ED007AFEEEE87A17EE903A27F812301B
:109B90000132012304311035DFE700BFB43100206A
:109BA0000000003810910020A6C300200C91002076
:109BB0002DE9F04F2DED028B83B0804602AF68B9DE
:109BC000694A6A4801211DF083FC4FF0FF342046AA
:109BD0000437BD46BDEC028BBDE8F08FDFF8D0A1A5
:109BE000DAF80030624A6148624DDFED638A634E05
:109BF00003211DF076FC0024DAF80030C4EB0411D8
:109C000001F1310293421ADC6D468AB002AA5C4827
:109C1000C2E907130523C2E9050442F8103F53487F
:109C200000234FF4225101F083F8AD461423009332
:109C3000544A4E48234603211DF05DFCC7E75249B4
:109C4000524AAB1E05F1620033F902CFB1EC017A42
:109C500007EE90CAF8EEE77A834267EEA87A67EEDD
:109C6000877AE2EC017AEFD1DFF8489148484FF467
:109C7000E762002122F082FD00234A46434945481D
:109C800017F07EFFD9ED007A434B67EEA77AA3F574
:109C90007F72C6ED007AD9ED017A67EEA77AC3ED3F
:109CA000007A0123D9ED037A99ED027A67EEA77A5B
:109CB00047EE077A0133B3F5807F09F10809E2EC3A
:109CC000017AEFD1354A9FED368A93464FF000096D
:109CD00040F20110334B29499FED330A09EB030E83
:109CE0000023BEEC017AF1EC017A0133834207EEE6
:109CF000270AF6D1B4EEC80AF1EE10FAD8BFB0EEDA
:109D0000480AFEF765FD09F2044945F250039945FA
:109D1000224AABEC010A40F20110DBD12348DFF804
:109D200098900023DFED207A03EB090E9446002182
:109D3000FEEC016ABCEC017A0131142946EE877A07
:109D4000F6D15033B3F5C86FE0EC017AEAD1204682
:109D50001649C047013440F233539C4205F11E05B9
:109D60007FF44AAF62E700BF8A1C060064D004009B
:109D7000AC1C0600A6C3002000000038B01D002067
:109D8000D81C0600141D060044900020B4290020B1
:109D90007C2A0020F81C0020B0210020601D00203B
:109DA000BD378635F43F002000000000101D002064
:109DB0000C910020B4210020B43900202DE9F84F87
:109DC0008A4600AF002974D004680E1F361BF508C0
:109DD00026F0070604EB0608B8F802B01BF0010BEA
:109DE00016D1E94688B06A46334BCDE905310323E5
:109DF00042F8103F31485B464FF4C25100F098FFE3
:109E0000CD468BF31188BFF36F8F0423184602DF12
:109E1000294620461CF08DFC284434F83030C01A06
:109E2000854217D0E94688B06A46254BCDE9053A08
:109E3000032342F8103F214800234FF4C25100F0A1
:109E400077FF0023CD4683F31188BFF36F8F042380
:109E5000184602DFB8F8023023F00103A8F80230F8
:109E6000294620461CF065FC05EB000804EBC803FE
:109E70005B88DA0708D4414620461CF0A3FC424622
:109E8000294620461CF0E3FCA65BAE1B04EBC60390
:109E90005B88DB0709D4314620461CF093FC2A4638
:109EA000314620461CF0D3FC3546294620461CF09E
:109EB00045FCBD46BDE8F88F921D0600ACD00400FD
:109EC000691D06002DE9F04F91B08407009302F060
:109ED00004030293C2F3C20303F10103DDF868A097
:109EE000039205460E46059340F09D81041D00280F
:109EF0004AD101F00706341DC6F10806009B002771
:109F00005A1E4FF004084FF0FF3301930497B946EF
:109F1000BB4643460DB1009820600598002800F329
:109F2000D78090480099814203D38F488142C0F086
:109F3000CF80039911F0020CA4EB050040F0D6800D
:109F4000B9F10F0F00F2CF80002D00F0D68009F19B
:109F500040010DEB010EC0F3870001990EF8200CB3
:109F60000EF8101CBCF1000F00F0C38060F07F0001
:109F70000EF8200C013709F10109C5F1080104347C
:109F800006914FF6DA7E8CE00729B7D86FF01B00F8
:109F900011B0BDE8F08F7A285BD84B280FD847283E
:109FA00057D829282ED8252850D052D8202818BF75
:109FB00023280CBF4FF0010B4FF0000B71E04C3821
:109FC0002E2846D8DFE800F06D4545454545454516
:109FD000454545454845454545454545455645481A
:109FE000485656566D486A456D4518481845457F90
:109FF0007C48454548457C0000204FF0000B4FF061
:10A00000040835E02A38C0B2012101FA00F010EA54
:10A010000E0F46D110F0625C2CD110EA010B40D03B
:10A020006046013C4444B4FBF8F408FB04F425B159
:10A03000A3EB050CA444B445A8D8002870D005981B
:10A04000013805905AF8040B009063E70199013933
:10A0500001914FF0000B24E012F8010C6C2834D170
:10A0600012F8023C00206C2B8346C8D14FF0080840
:10A070004346D6E70AF1070A2AF0070A0734BAEC82
:10A08000027B24F0070435B106982044B0423FF625
:10A090007DAF84ED007B08344FF0000B4FF00808D3
:10A0A000434612F8010F002853D0BBF1000F7FF494
:10A0B00072AF2528F5D1019B013301934FF0010BBD
:10A0C0004FF00408ECE7584697E700208346A8E7DE
:10A0D000039988077FF551AF601B4FF0010CB0F575
:10A0E000007FFFF42DAF6FF0150051E74FF0000C2B
:10A0F000F5E70498013004903DE7BCF1000F01D072
:10A10000013638E70299023600297FF434AF00980F
:10A11000CDE90632FDF770F8DDE9063206442AE79C
:10A12000042B08D10AF1040015B1DAF800102160FF
:10A1300004348246B5E70AF1070323F0070303F16D
:10A14000080A1DB193ED007B84ED007B08340823E1
:10A15000A7E7631BB3F5806FC5D23DB9A6F108042C
:10A16000E01815E728CB04005C3E0600029A286040
:10A170009B082B709DF81030AAB1EB70AF702FB117
:10A1800008A80022C5F1010C91450ED1C5F10103CB
:10A190000DF120084FF0000A01930DF1300BD1456D
:10A1A00012D1601BF4E66B70E8E710F8013B19066A
:10A1B00008D50CEB040EB64503F07F033FF6E6AE80
:10A1C00004F8013B0132DFE71FB198F90020002AB3
:10A1D00017DB029BD3B11AF80B2004F8012B0022E5
:10A1E000019B18191044B0423FF6D0AE98F8000019
:10A1F00004F8010B00990392204622F098FA039A82
:10A2000014440AF1010A08F10108C8E798F800208F
:10A2100055F822300093029B45F822300098FCF755
:10A22000EBFF421CDCE76FF00D00B1E62DE9F04FCB
:10A2300097B000AFC7E90A3205468A4649B90378A4
:10A240004678807800EB83002844564524D8A0EB5C
:10A25000050AD7F8803095F80280D7F8804003F0DF
:10A260000103FB61EB787B62B8F1000F0CBF0024A7
:10A2700004F001041BB1D7F880309A0715D4A4B9B3
:10A28000FB6A1BB1BA6A5146284698475646304683
:10A290005C37BD46BDE8F08F441C2046FCF7ACFFA0
:10A2A000013020440AF1010ACFE7D7F88030C3F328
:10A2B000C0033B622B78BB619B003B616B687B6199
:10A2C000BB6905EB830BFB6A002B77D15646D8445C
:10A2D000BCB11C461BF8013B55F82300FCF78CFF72
:10A2E000D7F88430013043B1D7F88830A34282BF19
:10A2F000D7F8843023F814000134C3450644E9D16B
:10A30000D846D7F8803013F0050F0CBF4FF0020B82
:10A310004FF0010B4FF000097B6A9945B7D298F8CE
:10A32000013055F823A0AF4B9A4508F10208C0F060
:10A330004C81AD4B3A6A9A452CBF002301230AB3E6
:10A3400018F8021C7869FB621CF0C7FBFB6AC8B1F5
:10A35000EA468AB06A46A54B05937B69CDE906318A
:10A360004FF40073ADF82030A14B42F8103FA148E4
:10A3700000234FF4125100F0DBFC023ED54609F1F8
:10A380000109C9E723B1FB6933B9A6EB0B06F6E770
:10A39000D7F880309B07F2D55046FCF72DFFD7F851
:10A3A00084304BB1D7F888309C423FBFD7F8842027
:10A3B000431C22F8143001340644E0E7002C69D134
:10A3C000B8F1000F6CD0D7F880305E076BD5C1466E
:10A3D00007F148004246594622F0A9F90BEB080361
:10A3E000FB6000220233796A8A425ED3D7F880206C
:10A3F00095F801B0F969920704EB0B03DBB254BF87
:10A400004FEA59020022002940F0A780D7F88010B7
:10A4100011F0040F14BF494600216B70A970EA7057
:10A420003969BA6AFB6A28469847061EFFF62FAFBD
:10A43000BB692B707B6AEB704946BA6AFB6A85F888
:10A4400001B085F8028007F148009847B0F1000993
:10A45000C0F2B7803B697A6A786A03EB4201FB6815
:10A46000BA6A414403EB4000AAEB0101FB6A98473A
:10A470000028C0F2A880B14409EB00064FF0000BA1
:10A4800007F1380AA3456AD30021BA6AFB6A084675
:10A490009847FCE6444607F138004FF0000999E779
:10A4A0004446C1469AE7A14698E713F8016C13F8B1
:10A4B000021C55F82600B9604A498842C0F08B80DA
:10A4C00049498842396A2CBF4FF0000B4FF0010B0D
:10A4D00041B1B9687869C7E900321CF0FEFAD7E9E2
:10A4E0000032F0B9BBF1000F1ED0F96949B1611C0F
:10A4F00004F1280007F13004041904F8206CCCB2F0
:10A500000FE0D7F8801048070BD509F1280007F1B4
:10A51000300C09F1010100EB0C0909F8106C5FFA2D
:10A5200081F9013202335EE7D7F880108907DED463
:10A5300009F1280107F1300C8C44B9680CF8101CA3
:10A5400009F1010007F1580151FA80F009F10209FF
:10A550005FFA89F900F8106CE3E700215DE71BF86A
:10A560000A3087F8373055F82390D7F884302BB36A
:10A57000D7F888309B4521D2D7F8843033F81B8038
:10A58000BA6AFB6A012107F13700984700281ADBF5
:10A590000644B8F1000F06D14846FCF72DFE00F145
:10A5A00001081FFA88F8BA6AFB6A4146484698478C
:10A5B000002808DB06440BF1010B63E74FF00008AD
:10A5C000DEE74E4663E6064661E63B6A002B3FF453
:10A5D000DFAE0023B4E6396A0029A5D04FF0000BA6
:10A5E00077E700BF28CB04005C3E0600BF1D0600D5
:10A5F0000400000154D00400014B1860704700BFF4
:10A60000680200202DE9F047058B0446280717460D
:10A610000CD501290CBF45F0100545F02005258318
:10A6200087F31188BFF36F8FBDE8F087022905F02B
:10A63000070540F0948020461CF010FD052864D8E2
:10A6400001A353F820F000BF21A602005FA702007B
:10A650000BA70200CDA60200E7A60200F9A60200A1
:10A6600001F007035A1F012A1FD8002221F0070119
:10A67000062BD4F8008089B2C4E9002209D14346F0
:10A6800003E0628B013262831B68002BF9D141F039
:10A690000201218320461CF0E1FC4FF00009002854
:10A6A0006DD041F02001218369E0042B0AD121F013
:10A6B000070189B2218320461CF0D0FC10B141F083
:10A6C000200121834FF00008C14658E02369D3F8E8
:10A6D0000090238B23F0070343F0060323834FF0FE
:10A6E000000846464BE02369D3F80490238B23F0FF
:10A6F000070343F00403F1E72369D3F80890238BA1
:10A7000023F0070343F00503E8E74FF00008C146D4
:10A71000E7E7012243F00803238387F31188BFF39F
:10A720006F8F002A3BD1B8F1000F4AD1B9F1000F69
:10A7300002D02D492046C847EFF31187202383F329
:10A740001288BFF36F8F238B23F008039BB2238300
:10A75000D9063FD523F01002228303F0070566696E
:10A76000218B002EBFF67CAF0023D4F8008021F0AF
:10A770000701C4E9003341F0010121839946238B8D
:10A7800003F0070AAA4502D0A268002AC1D1B8F195
:10A79000000F02D1B9F1000FDAD00022BAE7A168A8
:10A7A0000029C0D00D680029BDD04F6833465246FD
:10A7B0002046B8471DB12B6829461D46F3E72B46B6
:10A7C000FAE74146334652462046D8F800801CF04E
:10A7D00071FCA8E79A067FF523AF23F020022283BD
:10A7E00003F0070527E700BFE17004002DE9F047FB
:10A7F000DFF85480044607464FF0010994FAA4F5A7
:10A80000B5FA85F509FA05F32E0108EB05156FEA8F
:10A81000030A24EA03042B7B63B158F806301B6952
:10A820006BB94644042273682846196807EA0A0788
:10A830001CF0DEFD002CE1D13846BDE8F08728464B
:10A8400098470028F6D1ECE7E4D0040010B5104991
:10A85000104888B0002221F0D3FE4FF400320023CC
:10A86000CDE9062300240E23CDE90334CDE90144CC
:10A87000094B0A4900944FF44072094819F0D8FA7C
:10A880000849074821F0C5FC204608B010BD00BFAC
:10A89000A9A8020030110020D9AB02008069012074
:10A8A000600C00207E1E0600014818F047BF00BF64
:10A8B000340900202DE9F047804621480F461CF05E
:10A8C00077FD0646002833D000252846BDE8F087EE
:10A8D000237B83B12368DB680BB12046984763680C
:10A8E00083F8069023681B69D3B96368042219684A
:10A8F00020461CF07DFD013610345445E8D3B8F1F4
:10A90000000FE2D0002DDFD02846FFF76FFF05468D
:10A91000002FF7D000214FF4A47021F060FDF1E783
:10A92000204698470028E0D009FA06F31D43E2E7E5
:10A93000044CDFF814A005464FF00109DDE700BF25
:10A940004C910020E4D00400F4D00400014B53F8F3
:10A95000200070479CD4040008B5034608462BB17C
:10A96000044A136000F042FC002008BD6FF015009F
:10A97000FBE700BF6C02002010B5044C237813B92C
:10A98000034818F0DBFE0123237010BD086001208E
:10A990003409002010B504460B481CF009FD5CB1D9
:10A9A000BFF35B8F094B53E8001F013943E80012E6
:10A9B000002AF8D1BFF35B8F054819F0F1FF054875
:10A9C000BDE8104018F0BABE449100204891002024
:10A9D0003011002034090020064BBFF35B8F0022AA
:10A9E00053E8000F43E800210029F9D1BFF35B8F42
:10A9F000704700BF4491002070B5FFF7EDFF084C91
:10AA0000084E0546B44200D370BD63685B792BB134
:10AA100023685B6813B12946204698471034F1E754
:10AA2000E4D00400F4D0040010B5044C04492046DE
:10AA30001CF08EF9034B1C6010BD00BF08080020FD
:10AA400088D404003C9100200D4A0E48002310B524
:10AA500013700D4A13600D4A4FF400411360FFF765
:10AA60007BFFFFF7E1FF0A4B0A4918468B4200D3F0
:10AA700010BD1A1A5C681211013222711033F5E709
:10AA800009600120AD73040044910020489100202A
:10AA9000E4D00400F4D00400014600220148002361
:10AAA0001CF077B90808002001481CF00EBA00BF5E
:10AAB00008080020024B014618681CF061BA00BF6C
:10AAC0003C91002001481CF096BA00BF0808002005
:10AAD00070B52A4B1B78002B4ED0FFF7E5FF0446DC
:10AAE000002846D1264B274D1B68002B19DD21F08D
:10AAF0003FFD4FF47A76A0FB063206FB0121D5E933
:10AB00000020DB0B43EA41439B1A4FEAD13140F26C
:10AB1000E93261EB0001934271F1000101D3FFF7CB
:10AB20006BFFD5E9003213F57A7342F10002C5E9F3
:10AB300000320CB3BDE87040FFF7C4BF6B685B79AF
:10AB400023B12B6821461B68284698471035B5422B
:10AB5000F4D32046FFF7AEFFBFF35B8F0A4B53E8F9
:10AB6000001F013943E80012002AF8D1BFF35B8FC0
:10AB7000B8E7064D064EEAE7002070BD08600120E8
:10AB8000449100202811002048910020E4D00400C6
:10AB9000F4D0040070B50D4D297861B90120FFF79C
:10ABA00089FE0B4C0B4EB44206D3FFF791FF0028F1
:10ABB000FBD101232B7070BD63685B791BB12368E7
:10ABC00020469B6898471034EDE700BF09600120DC
:10ABD000E4D00400F4D0040000212DE9F843084635
:10ABE000FFF768FE044648B340F267684FF000097B
:10ABF00001F0AAF81A4B1B4A1B58136033B11A4BC9
:10AC00001B68092B02DD194818F098FD184F002524
:10AC100044B12046FFF7EAFD044618B94FF0FF386B
:10AC20004FF0FF39FFF754FF064628B9B5B90F4872
:10AC300042464B4618F0B6FD3546E9E74FF0FF387F
:10AC40004FF0FF39D4E72B689B691BB100221146F6
:10AC5000284698471035BD42F5D3E8E7054DFAE799
:10AC60000800000040910020489100203409002095
:10AC7000F4D00400E4D0040013B518481CF098FB8D
:10AC8000174B1B7873B1EFF31184202383F31288E1
:10AC9000BFF36F8FFFF71CFF84F31188BFF36F8F33
:10ACA00002B010BD0F4B1B68002BF9D050B9002229
:10ACB0000023CDE900230C484FF40042002319F093
:10ACC00037FEEDE70928EBD1074819F069FE074880
:10ACD00002B0BDE8104018F031BD00BF489100201F
:10ACE000096001204091002030110020340900202B
:10ACF00010B5064B1B68044698472146A0600448DF
:10AD00001CF0C4F8BDE81040FFF7B6BF6C0200208D
:10AD100008080020044A054B9B1AB1EBD30F34BF3F
:10AD200052F8310000207047DCCF0400E4D004006A
:10AD30002DE9F04F8FB004AFC1F34A26B8600D463D
:10AD400090467B600C0D002E61D04FF000090A2365
:10AD50004FF0040B07F1140AFE60C7E90799C7F822
:10AD600024900093CDF808B0CDF804A007F11C039F
:10AD7000F9684A464046FFF759FAB0F5006F0346B6
:10AD80001CD36C468AB0D8F8041004AB2448C3E93D
:10AD9000050140F2FF71D9611A464FF40071198420
:10ADA000204B42F8103F20484B464FF41251FFF71A
:10ADB000BFFFA5462C37BD46BDE8F08FC0F30A069D
:10ADC00004F11700184420F0070080083B60FFF7EB
:10ADD00063FE66F35325044680B13B68134A00F1D5
:10ADE0001001C7E90839F961CDE901AB0A230093E5
:10ADF000F96807F11C034046FFF718FA66F353257C
:10AE00007B68B9682A4620461CF012FBD2E704F1A1
:10AE1000170020F007008008FFF73EFE0446EDE72C
:10AE2000931E0600040000016CD0040003740400AB
:10AE30002DE9F04F87B0DDE9127ADDE9106B0546A8
:10AE4000884614469946BFB11021CDF800A03B4674
:10AE50005A460020CDF814A0FFF734F8B0F5006F83
:10AE600001460BD3194A1A4840F2FF73022107B07A
:10AE7000BDE8F04F1CF035BB3946384604F00703F7
:10AE800005F00704E40044EA831444EA402444EA59
:10AE9000065406F11700084420F0070080080391CB
:10AEA000FFF7FAFD054640B13FB10399CDF800A088
:10AEB0003B465A461030FFF705F84B4622464146BE
:10AEC000284607B0BDE8F04F1CF0B2BAD21E06000B
:10AED0006CD00400406820B1034BC01A40F3CF008F
:10AEE00070474FF0FF307047DCCF04000EB403B55D
:10AEF00003AB014653F8042B0448019301F0B0F86A
:10AF000002B05DF804EB03B0704700BF4575040064
:10AF1000CA0605D48B064CBF02490349FFF7E6BFBA
:10AF2000704700BF0B1F06000A1F06002DE9F04FF7
:10AF300089B09846159B0693DDE916A39DF85090BD
:10AF4000189F059204460D460493B9F1000F00F0D6
:10AF5000AE8007F4807307931CF048FA07F0020BE9
:10AF60000246002872D077492046FFF7BFFF064609
:10AF7000BBF1000F08D017F0440F69D172492A467F
:10AF80002046FFF7B3FF064407F0010353B16F4BB0
:10AF90006F4953F829206F4B2046002A08BF1A46F4
:10AFA000FFF7A4FF07F48073002B07F0080318BF16
:10AFB0004FF00008002B77D0674B684953F82920E1
:10AFC0002046FFF793FF0546059B2BB164491A46BF
:10AFD0002046FFF78BFF0544B8F1000F05D061490B
:10AFE00042462046FFF782FF05445F483544069BF2
:10AFF0001BB15E4922461BF03FFD049B002B00F075
:10B000008C80049B102B28BF10233946204698467D
:10B01000FFF77EFF0026B54250DC002633461AF8C3
:10B02000032053492046FFF761FF0136102E4BD015
:10B03000710703D14F492046FFF758FF4645334675
:10B04000EDD34D492046FFF751FFEEE706468FE767
:10B050004A4B1868002896D0494B4FF47A7B1B68FE
:10B06000B5FBF3F54FF46163B5FBF0F100FB11554F
:10B070000BFB05F54FF03C0CB1FBF3F203FB121197
:10B08000B5FBF0FEB1FBFCF300FB1E550CFB1311EE
:10B090000BFB05F50091B5FBF0F53A49CDE901E56B
:10B0A0002046FFF723FF6EE707F008058CE7B8F1AD
:10B0B000010F0CBF2C4834484D4698E72D492046D7
:10B0C000FFF714FF0136A6E7304920460026FFF7B8
:10B0D0000DFF33461AF803202D49A2F120035F2B00
:10B0E00028BF2E222046FFF701FF0136102E0DD07B
:10B0F000720703D11F492046FFF7F8FEB0453346DB
:10B10000E8D81C492046FFF7F1FEEEE7049BB3EBBD
:10B110000803C24404937FF474AFB9F1000F0AD05E
:10B12000FB0704D50B4A0A492046FFF7DFFE3946E4
:10B130002046FFF7EDFE204609B0BDE8F04F1CF0B9
:10B14000F4B900BF121F0600161F0600ACD404009D
:10B15000CA2906000D1F0600C0D404003B1F0600CC
:10B16000411F0600451F06004575040061C002002E
:10B170004A1F0600521F0600501F0600549100206F
:10B18000509100201F1F06007B750400541F06000D
:10B19000561F060073B542F20F738B4228BF0B4651
:10B1A00005680F4A04460521684619F07FFC63686C
:10B1B0000C495B6806460B2228461CF0A8F9636818
:10B1C0003246694628465B681CF0A1F96368064967
:10B1D0005B681B2228461CF09AF902B070BD00BFC4
:10B1E000B71B0600123D0600F63C0600074A002188
:10B1F0000123904206D8064A01B901231360054B8A
:10B200001860704740085B000121F2E740420F00E0
:10B210005091002054910020F8B5074F0D46044688
:10B220004618B44201D12846F8BD14F8011BBB688A
:10B2300001485B689847F4E72CCC0400014B03609D
:10B240000020704708D5040007B51B491B481CF0B7
:10B2500071FC70BB1A4919481CF06CFC48BB1949B9
:10B2600016481CF067FC20BB174914481CF062FC10
:10B27000F8B90146154A11481CF043FFC8B9024607
:10B2800013490E4801231DF016F890B901230093CD
:10B29000014602230948EF221CF056FB48B9074833
:10B2A0001CF07BFB28B9054803B05DF804EB1CF0EB
:10B2B000A4BB03B05DF804FBEC020020D40A00201C
:10B2C000D4020020BC020020A4020020780200204A
:10B2D000931F060010B5DFF824C086B04FF4281481
:10B2E000CDE904C40824029404AC0194BDF82040C4
:10B2F00000941EF0A8FF06B010BD00BF1800280083
:10B3000080B505460E461746984619F0C5F803461F
:10B3100000F01AFDDFF81890044649F80030424664
:10B3200030463946A84754F8090000F08BFC00BFAE
:10B330000800000008B50348034A0021121A1CF057
:10B34000CDF908BD680B0020D46001200748084AE9
:10B35000084908B5121A1CF0C3F90748074A0849FA
:10B36000BDE80840121A1CF0BBB900BF0000002065
:10B37000680B00205C3E060000000020000000205A
:10B380005C3E06002DE9F84F804600AF0C460029D0
:10B3900065D0E9468AB0D1E90012A3686D46394804
:10B3A0006E464FF0050ACDE90501CDE9072346F8C1
:10B3B00010AF3548324600234FF42151FFF7B8FC57
:10B3C000CD46D4E903126369AD463048C5F810A0F4
:10B3D000C5E90501C5E907232B48002332464FF490
:10B3E0002151FFF7A5FCCD46E369294A2648DFF83D
:10B3F000B0B001211CF075F8264600254FF00A0A6E
:10B40000E9468EB0D6E908C0D6E90A136A46CDF8F7
:10B410001CC005F1010CCDE908C0A81CCDE90A014A
:10B42000E91CCDE905B5CDE90C1342F810AF16487B
:10B43000002345F240010435FFF77AFC102DCD467C
:10B4400006F11006DCD1236E124A0F4801211CF0D0
:10B4500048F8A369104A0C4801211CF042F8B8F1E1
:10B46000010F07D1EFF305830C4A0748103B414613
:10B470001CF037F82146404617F0B4FDBD46BDE844
:10B48000F88F00BFAC1F0600A4D00400DB1F06002D
:10B490000A2006005C2006006B20060099200600AA
:10B4A0001920060030BFFFF7FDBF00BF2DE9F041B6
:10B4B0000B4EDFF8348006EB0807CC1B05463246FE
:10B4C0000849204621F033F9A01942460021083CE2
:10B4D00021F054F9AC6707F10800BDE8F08100BF26
:10B4E00000000000F4D004000800000010B5204C5B
:10B4F000204921481CF001F9A36A990136D51E485C
:10B500001E491CF0FAF81E20A36ADA0104D51A4875
:10B510001B491CF0F2F81F20154CA36A1B0304D52D
:10B52000154818491CF0E9F82120A36A590304D5ED
:10B53000114815491CF0E1F822200D4CA36A9A032A
:10B5400004D50D4811491CF0D8F82320A36ADB0369
:10B5500004D509480E491CF0D0F82420044A936A07
:10B560006FEA03436FEA1343936210BD1D20CBE7DC
:10B5700000ED00E0AC200600A4D00400C4200600CA
:10B58000D7200600F12006000F2106003421060016
:10B590004E21060070B506460D46284C284929481C
:10B5A0001CF0ABF8A36AD9043CD5264826491CF008
:10B5B000A4F81720A36A1A0504D5224823491CF0D1
:10B5C0009CF818201D4CA36A9B0512D51D482049E4
:10B5D0001CF093F8A36BA26A100409D51D4A194800
:10B5E00001211BF07EFF1EB1A36A23F40043A36276
:10B5F0001920124CA36A590504D5124816491CF0AB
:10B600007CF81A20A36ADA050ED50E4813491CF0FF
:10B6100074F81B20094A936A43F47F439362002322
:10B620002B7070BD1620C5E7A36A9B04F2D50548B0
:10B630000B491CF062F81C20ECE700BF00ED00E0B5
:10B6400079210600A4D004008F210600A021060065
:10B65000B3210600CC210600E1210600FC210600F2
:10B66000142206002DE9F843804689461746354DD9
:10B67000354936481CF041F8AB6ADE0627D5344917
:10B6800032481CF03AF81124AB6A1D0704D5314941
:10B690002E481CF032F812242A4DAB6A980718D5B0
:10B6A0002D492A481CF029F86E6BAB6A190646D55D
:10B6B0002A4A2648334601211BF013FFB9F1000F37
:10B6C00003D0AB6A23F08003AB62132403E01024A1
:10B6D000DAE76FF015061B4DAB6ADA0704D520498F
:10B6E0001A481CF00AF81424AB6A9B0604D51D49BD
:10B6F00016481CF002F81524124B9A6AD50602D49B
:10B700009A6A90070AD55B68190507D54146304605
:10B7100000F01CFA10B180F309880224094B9A6AE0
:10B72000920642BF5A6A22F400525A629A6A42F062
:10B73000FF029A6200233B702046BDE8F8836FF059
:10B740001506C2E700ED00E043220600A4D0040085
:10B7500059220600A02106008C220600A422060021
:10B76000BA220600142206002DE9F041654B9CB078
:10B77000D3F8048000AF0546C8F30804002686F31A
:10B780001188BFF36F8F02F07F43B3F17F4F07D172
:10B7900002F00C03082B12D15B495C481BF0ADFF93
:10B7A000002635460023FB71E31E092B00F2898039
:10B7B000DFE803F00A7F827B87878787878510070A
:10B7C0004CBF0D460126EDE7514950484D4C1BF04A
:10B7D00094FF0023FB71E36A9A0705D54D494B4856
:10B7E0001BF08BFF00242DE0E36A002B01DA4A49AD
:10B7F000F5E7E36A5B00F5D5484944481BF07DFF57
:10B800006369AA6943F480736361BFF34F8FBFF329
:10B810006F8F32F8023C626922F480726261BFF37A
:10B820004F8FBFF36F8F03F47F42B2F55F4F25D187
:10B83000DBB2022B22D12B68394A344801211BF09C
:10B8400050FE2C68FB79ABB96822294607F1080045
:10B8500020F06DFF7B6A002E50D0C3F3080222B99E
:10B860006FEA53236FEA43237B6207F10801204606
:10B87000FFF788FD7037BD46BDE8F081214B9A6A1D
:10B88000D2B22AB1FA1D01212846FFF7EBFE0EE0E5
:10B890009A6A12F47F4F04D0F91D0120FFF77AFE57
:10B8A00005E09B6AB3F5803F9CD3FFF71FFE04467B
:10B8B000C8E7FA1D0021E7E7F91D0020EEE7194966
:10B8C0008DE7194A194B18F4F87FE8468AB008BF8B
:10B8D00013466A461649CDE905134FF40073ADF8D7
:10B8E0002030103C134B079442F8103F07480023C8
:10B8F0004FF41151FFF71CFAC54673E76FF30803C5
:10B90000B2E700BF00ED00E007230600A4D004006A
:10B9100032230600492306006A2306007823060026
:10B9200097230600B3230600D9220600EE22060064
:10B93000D723060004000001044B5A6942F01002AC
:10B940005A615A6922F008025A61704700ED00E01E
:10B95000EFF30880EFF3098101B57246FFF704FFAA
:10B9600001BD00BF0B4880F3088816F043FA202081
:10B9700080F3118808484FF40861401880F3098863
:10B98000EFF314800221084380F31488BFF36F8F14
:10B9900000F06CF800A00120808501201EF0040F4B
:10B9A0000CBFEFF30880EFF30980816911F8021CE6
:10B9B0000229FFD001B572461BF094FE01BD00BF05
:10B9C00040B2002807DB044A4109012300F01F00B0
:10B9D000834042F82130704700E100E040B2002887
:10B9E0000CDB4309064900F01F002033012282408E
:10B9F00041F82320BFF34F8FBFF36F8F704700BF15
:10BA000000E100E0054B420900F01F0053F822203E
:10BA1000012303FA00F01040704700BF00E100E08E
:10BA200040B20028A8BF00F1604001F10101B8BF99
:10BA3000064B4FEA4111ACBF00F5614000F00F002A
:10BA4000C9B2B4BF195480F80013704714ED00E078
:10BA5000044B054A23F07F039360BFF34F8FBFF37E
:10BA60006F8F70470070020000ED00E008B5FFF72F
:10BA7000EFFF104BD3F8882022F47002C3F888201F
:10BA8000D3F8882042F4A002C3F888204FF0404247
:10BA9000C3F83422BFF34F8FBFF36F8F0023E1EE63
:10BAA000103AFFF747FCFFF751FC00F02FF917F0B1
:10BAB000BDFB00BF00ED00E04FF47D41C0F8C410B5
:10BAC00042F8203C009B42F81C3C0A49019B42F88A
:10BAD000183C029B42F8143C21F001014FF08073A6
:10BAE00042F8043C42F8081C0023203A0265C36770
:10BAF000704700BF01B30200838913F0020F124B9D
:10BB000003D190F8C520D20611D45A6B42F080427E
:10BB10005A63D0F8C43019075CBF43F00803C0F87B
:10BB2000C430838943F002038381802070475A6BBD
:10BB300022F080425A63D0F8C4301A0744BF23F081
:10BB40000803C0F8C430F0E700EF00E0094A0346FC
:10BB5000906870B113F1160F806E05D0A0F18002CD
:10BB6000934205D3834203D2814228BF002070470D
:10BB7000002070476CBB0020104B9B6883421AD199
:10BB8000EFF30580B8B9EFF31181202282F3128818
:10BB9000BFF36F8F9A8922F002029A81EFF3148328
:10BBA00023F0040383F31488BFF36F8F81F31188AC
:10BBB000BFF36F8F70476FF0150070476CBB0020AC
:10BBC00008B515460E460022E1EE102AEFF3148266
:10BBD00022F0040282F31488BFF36F8FBFF36F8FDC
:10BBE0000B4A0C4B9060826F1A6000F0BFF82C4635
:10BBF00086F309880020044B984720460021002244
:10BC00000023024C204700000F77040001B302001C
:10BC10006CBB00207C910020014B10221A61704700
:10BC200000ED00E0054B9A699B689A421FBF044AE9
:10BC3000536843F080535360704700BF6CBB0020D3
:10BC400000ED00E0084B9B6883420BD1EFF30583C6
:10BC500043B1064B5A6842F080525A605A6A22F445
:10BC600000425A6220F0DABA6CBB002000ED00E01E
:10BC700023498A6882F8C5E04FF030001044EFF3A2
:10BC8000098C80E8F01F1EF0100F03D102F1840030
:10BC900080EC108A202080F31288BFF36F8F194F39
:10BCA0004FF000668A698A603E60906F164C206093
:10BCB00092F9C5E0D06F0023D36780F311881EF09E
:10BCC000100F03D00023E1EE103A03E002F18400EC
:10BCD00090EC108AEFF3148323F0040383F31488A9
:10BCE000BFF36F8F04B5104600F040F8BDE8044084
:10BCF00002F1300090E8F01F8CF3098870470000D3
:10BD00006CBB002004ED00E07C910020044800237F
:10BD10002021C2180133302B82F80013F9D170476B
:10BD200000E100E008B5EFF30583064A103B02EBA3
:10BD3000C30152F8330049688847BDE80840FFF75F
:10BD400071BF00BFF0CC04000148006870470000DC
:10BD50007C910020024B034A0348012100F090B877
:10BD6000000004200000002094D5040010B5044613
:10BD7000FFF7C2FEA26E03460548D21AC0E90023AF
:10BD8000044B8360BDE81040012100F083B800BF80
:10BD90008091002000000B1508B503461048D0F82C
:10BDA0009020C2F30722013A934207D90D480E4A68
:10BDB00001211BF096FB6FF0150008BDC0F898300C
:10BDC0000A6822F01F021A4342F01002C0F89C20B9
:10BDD0008A6842F00102C0F8A0201846EDE700BFD3
:10BDE00000ED00E084D00400EE230600F0B50E461E
:10BDF00085B01F4604460025B5420DDA606810B3D1
:10BE000097B1431E18420AD0104A11482B4601210F
:10BE10001BF067FB6FF01502104605B0F0BD7F28E0
:10BE2000F2D921680B42EFD1236801931BF092FCF9
:10BE3000A36801A90343D0B20393FFF7ADFF10F14C
:10BE4000160FE7D0421C01350C34D5E71424060048
:10BE500084D00400044B0522C3F89420BFF34F8F15
:10BE6000BFF36F8F704700BF00ED00E0BFF35F8F3F
:10BE7000024B0022C3F89420704700BF00ED00E0A1
:10BE800010B5034C01232278FFF7B0FF207010BDDE
:10BE90000B60012008B50B4A00231278FFF7A6FFBC
:10BEA00010F1160F07D0084A0021D2F89030C3F3E2
:10BEB0000723984200DB08BDC2F89800C2F8A01022
:10BEC0000130F2E70B60012000ED00E02DE9F043C6
:10BED0005D485E49D0F890300C68C3F307239C425C
:10BEE00085B000F2AE80FFF7C1FF4968002294429E
:10BEF00001F10C011AD1564F564D3C706846FFF7C0
:10BF00009DF9554C554E81464FF00008C14520D152
:10BF10003B784D490020D1F89020C2F3072293428C
:10BF2000C0F28980FFF796FF002050E0C0F898200B
:10BF300051F80C3C23F01F03134343F01003C0F8E7
:10BF40009C3051F8043C43F00103C0F8A0300132AA
:10BF5000CDE7009800EB08114FEA081CCB6823409E
:10BF6000B3F5000F49D00BD8B3F5001F32D0B3F5AD
:10BF7000800F37D0B3F5801F14D008F10108C5E752
:10BF8000B3F1007F42D0B3F1805F48D0B3F1807F3E
:10BF9000F3D150F80C3088684A681BF0DBFB40F0A6
:10BFA000887009E050F80C3088684A681BF0D2FBB2
:10BFB00040F0885040F43020039001A93878CDE952
:10BFC0000123FFF7E9FE002831DA6FF0150005B014
:10BFD000BDE8F08350F80C3088684A681BF0BAFB63
:10BFE0003043E9E750F80C3088684A681BF0B2FB30
:10BFF00040F0C06040F40030DEE750F80C30886854
:10C000004A681BF0A7FB40F08270D5E750F80C306F
:10C0100088684A681BF09EFB40F48020CCE750F80B
:10C020000C3088684A681BF095FB2843C4E73B78CE
:10C0300001333B70A1E7C1F89830C1F8A00001338B
:10C0400069E74FF0FF30C2E700ED00E0A0D5040043
:10C050000B600120000002110000F0FF0000081139
:10C06000F0B587B007460E461446002110226846F8
:10C070001D4620F083FB02238DF802302A46054B33
:10C08000019321466846CDE9047618F0C9FD07B052
:10C09000F0BD00BF7577040008B5024B1B689847D8
:10C0A000002008BD8C910020034B044A186093784F
:10C0B00043F00203937070478C9100201C03002012
:10C0C00008B50649064821F00701C1F1005202F502
:10C0D00080221AF090FC002008BD00BF737202207D
:10C0E0009091002070B54169867A0B4D044659B194
:10C0F000437ADB0706D4242303FB0653DB691B6862
:10C100009B689847002363612420214600FB06506A
:10C11000BDE870401FF068BF88090020024B242250
:10C1200002FB0030704700BF88090020827A064B6E
:10C13000242101FB02331A6A1B7D1B33801A23F072
:10C140000303B0FBF3F070478809002038B5074BB4
:10C15000827A242404FB0233DB69D3E901240C60D6
:10C160001568FFF7E3FF04FB005038BD8809002085
:10C170002DE9F04385B005466846039190461C467C
:10C1800020F0F8F9DDE90067EFF31189202383F34C
:10C190001288BFF36F8F6B8A002B41D02A8A9A4294
:10C1A00025D900220023284617F096FA0446F0B15C
:10C1B00089F31188BFF36F8F039B002B41D0324668
:10C1C0003B46684620F0FBF9A27A264B242101FB6E
:10C1D00002332046DB691B6803A91D68DDE90023E3
:10C1E000A847606170BB2046FFF77CFF24E0698AA6
:10C1F0004B1E6B8289F31188BFF36F8F2B7D2A8AC8
:10C200002C6A1B3323F00303521A02FB0344154B21
:10C21000154AEB1A9B105343A3722B7DE372CBE7B5
:10C2200089F31188BFF36F8F23464246284617F0E3
:10C2300053FA04460028BFD10024204605B0BDE8CB
:10C24000F0836361012300252381039B6382E27AEB
:10C250006560294604F1180020F090FA6369258290
:10C26000E360EAE788090020398EE33870B50D4CA9
:10C27000242500B970BD037A4668002BFAD0013B33
:10C28000DBB20372002BF5D1C3604360837A05FBF8
:10C2900003439B6913B198473046EAE7FFF722FF53
:10C2A000FAE700BF880900200C4B0122C3F84025A3
:10C2B0004FF080434FF08051C3F87825D1F830011A
:10C2C000082805D1D1F83411022908BFC3F838264F
:10C2D0000122C3F880250020704700BF00E0014024
:10C2E00048B1054B054A1B68B3FBF2F35843044BB6
:10C2F00043F00103184770476C07002040420F00CD
:10C3000070D1040008B5054A054B136010463C2364
:10C31000536015F053FE002008BD00BF9C91002023
:10C320003FC00F002DE9F04190F8283003F01F03C3
:10C33000012B04460F4600F128062FD0022B18D0FF
:10C340008BB394F8291020461BF09AFB024678B371
:10C3500030461BF07FFC1D4D002834D113693BB3E0
:10C360003A463146204698470346FFF7EDFC2B50EE
:10C3700024E0818DC9B21BF064FF05460028E0D09F
:10C3800030461BF067FC024668688368CAB99B6840
:10C3900073B13A463146BDE8F0411847818DC9B2C4
:10C3A0001BF036FFE9E790F829101BF06DFFE4E77A
:10C3B000FFF7CAFC054B6FF085021A500020BDE85C
:10C3C000F081DB68E4E7D368C9E700BF0C00000038
:10C3D0002DE9F04F0B7E33F0800893B004460D46F4
:10C3E000164640F08E847AB10846FFF73FFF6B7E19
:10C3F000DF0703D49E0711D52B7E7BB9204613B0EF
:10C40000BDE8F04F1BF052BC4A7E00F128099007AE
:10C4100008D5802B0CD12846FFF728FF404613B0E3
:10C42000BDE8F08F910700F02784002B40F02484B2
:10C43000D2072FD52B8A082B40F00684EA681368B0
:10C44000A3625368C9F80430294600201BF0F8F9AC
:10C45000054610B1FFF70AFFEFE048461BF0FAFB74
:10C46000E28D70B9B2B12946A0691EF041FB0146C8
:10C47000002800F02D84204613B0BDE8F04F1CF0DA
:10C4800086B83AB1114620461CF07CF805460028D3
:10C4900000F01E84FFF758FC94F82880B14F002369
:10C4A00018F0600FC351C8F3411307D0032B40F0BD
:10C4B000BD81FFF749FC6FF0850337E048461BF06C
:10C4C000C9FB94F82930002840F04E81013B0A2B2B
:10C4D000EFD801A252F823F04FC60200B3C4020005
:10C4E000DBC60200B3C4020005C50200B3C40200EB
:10C4F000B3C40200B3C4020075C50200B3C4020095
:10C50000D7C50200618D7F29D3D8A38D002BD0D150
:10C51000E38D002BCDD118F01F0FCAD194F8303025
:10C52000022B05D1FFF710FC4FF0FF333B5076E0B4
:10C53000A069036993F880301B0707D5C9B21BF0C7
:10C54000EBFB804628B1002D6CD167E7012384F80E
:10C55000393094F83030012B0AD1638D43B984F817
:10C560003030FFF7F1FB3B58002B00F0858056E0A0
:10C570000123F4E720461BF0E2F9628DFF2A014611
:10C5800097D8E38D002B94D194F82830D80690D119
:10C5900094F83030002BC5D02AB1D2B220461BF01F
:10C5A0005DFD0028BED0618D94F838308B42D8D024
:10C5B000C9B220461BF059FD80460028C3D1628DC8
:10C5C000002A14BF0223012384F8303005212046BD
:10C5D0001CF068F8C5E708F01F08B8F1010F7FF4F8
:10C5E00068AFE38D002B7FF464AF628DFF2A3FF6C6
:10C5F00060AFA18DFF293FF65CAF94F83030022B7D
:10C6000090D1D2B2C9B220461BF03FFF10F1020F09
:10C61000804640F01081FFF797FB47F8008065B136
:10C620004FF000082846FFF721FEB8F1000F7FF415
:10C63000F5AEFFF789FB3B58F3B148461BF00AFB08
:10C640000346A069002B00F04F83802155E3E38D62
:10C65000002B7FF42EAF94F83030002B3FF462AF04
:10C66000012BA18D02D100297FF45CAF18F01F08C7
:10C670000CD0B8F1020F16D0E38D002B40F0D7821A
:10C6800020461BF0FDFA0028D7D1B7E600297FF439
:10C6900049AF638D012BEFD194F86C3061F3C30384
:10C6A00084F86C30E8E7B4F82AA0BAF1000FE3D1BF
:10C6B0005FFA81F8414620461BF0DAFF0346FFF798
:10C6C00043FB3B50013302D14FF0FF383BE752466A
:10C6D000414620461BF0C4FA43E7E38D002B7FF46C
:10C6E000E8AE628DA38D022A5FFA83FA11D108F0B9
:10C6F0001F085AEA08087FF4DCAEA0690122190A73
:10C700001BF0E7FA00287FF4D4AE012384F8393017
:10C7100027E794F8301000293FF404AF012902D133
:10C72000002B7FF4FFAE18F01F0811D0B8F1020FF4
:10C73000A2D1002AA0D1514620461BF084FF034617
:10C74000FFF702FB3B500133BED001225146C0E748
:10C75000002B7FF4E7AE012A8ED194F86C3043F0C1
:10C7600008039DE70C0000000A2B3FF6A2AE01A2D1
:10C7700052F823F0A1C70200B3C40200B3C4020000
:10C78000B3C40200B3C40200B3C402001BC8020059
:10C79000B3C40200ABCB0200B3C40200D5CB02008D
:10C7A000E38D022B7FF485AE94F83030002B3FF4FC
:10C7B000B9AE012BA18D02D100297FF4B3AE18F0E0
:10C7C0001F0811D0B8F1020F1CD04FF0000805F17E
:10C7D0000C0A50461BF036FAE38D984218D2FFF748
:10C7E000B3FA6FF00B03A1E600297FF49BAE94F837
:10C7F0006C304FEA930808F00208C3F3001348EACC
:10C800000308E4E7C9B220461BF041FF8046DEE79B
:10C81000414650461BF048F8A3E6B4F82AA018F0A9
:10C820001F0F4FEA1A235FFA8AFA09D029462046D9
:10C83000FFF778FD8046B8F1000F7FF484AE90E6F4
:10C84000013B0E2B3FF635AE01A252F823F000BF9C
:10C850008DC80200CDC8020077C90200B3C402002F
:10C86000B3C402006FC902006FC90200B3C4020062
:10C87000B3C40200B3C40200B3C40200B3C40200D4
:10C88000B3C40200B3C40200B9CA020005F10C0827
:10C8900040461BF0D7F983462046B4F82EA01BF083
:10C8A0004EF820B101287FF404AE616F00E0216FE3
:10C8B000002900F02A820A78DA4528BFDA46524574
:10C8C00028BF524640461AF0DEFF4AE620461BF0DB
:10C8D00036F80AF1010201900146D2B220461BF05F
:10C8E00097FB804600283FF4E4AD05F10C0AD0F830
:10C8F00004B050461BF0A6F99BF80020824228BFE6
:10C900000246594650461AF0BEFFD8F80CB0BBF1AB
:10C91000000F09D1298AE38D99427FF622AEC91A08
:10C9200050461AF0CBFF1CE6DBF8040083681B6B53
:10C9300013B9DBF800B0EAE7019998470028F8D06E
:10C94000A0F1040858F8041F0029F2D00A78002A40
:10C95000EFD05046CDE902211BF074F9029A0399F9
:10C96000904238BF82B250461AF08DFFEAE7204667
:10C970001AF0E5FF9DE55246032120461BF0C0F862
:10C98000824600283FF495AD1BF057F9B4F82EB05D
:10C990009AF81530C8B99AF814808DF828808DF867
:10C9A0002930DAF8103005F10C0A1B88ADF82A306E
:10C9B00050461BF047F9C3455A4628BF42468242BB
:10C9C00028BF02460AA950467DE7DAF808208DF80C
:10C9D0001530C14B1340C14A4FF0000893428DF807
:10C9E000148058D1102106A81EF0A2FA021EFFF6EC
:10C9F00060AD0AA9102ADFF8ECE20DF1180C084628
:10CA000028BF1022424501F1020133D892000232C0
:10CA10005FFA82F88DF81480034605F10C0A50463F
:10CA200002931BF00FF9D845424628BF5A46904260
:10CA300028BF104602288346804628BF4FF0020BCD
:10CA40005A46A8EB0B0805A950461AF01CFF4FEAFE
:10CA500058030193029B9B4603EB5802934521D157
:10CA600018F0010F3FF47DAD019A995C50461AF021
:10CA700013FF76E51CF8013B4FEA131A03F00F038E
:10CA80001EF80AA01EF8033001F802AC01F8013CC0
:10CA900008F10108B6E79AF81480DAF810308DF83A
:10CAA0001480BAE71BF8011B5046CDE902321AF098
:10CAB000FBFEDDE90232D1E720461AF040FF38B133
:10CAC00001282CD0FFF740F96FF085033B5048E573
:10CAD000236F002B00F019815B88B3F5007FF1D93B
